{
  "_format": "hh-sol-artifact-1",
  "contractName": "VerifierPoseidonBridge",
  "sourceName": "contracts/VerifierPoseidonBridge.sol",
  "abi": [
    {
      "inputs": [
        {
          "internalType": "uint256[2]",
          "name": "a",
          "type": "uint256[2]"
        },
        {
          "internalType": "uint256[2][2]",
          "name": "b",
          "type": "uint256[2][2]"
        },
        {
          "internalType": "uint256[2]",
          "name": "c",
          "type": "uint256[2]"
        },
        {
          "internalType": "uint256[8]",
          "name": "input",
          "type": "uint256[8]"
        }
      ],
      "name": "verifyProof",
      "outputs": [
        {
          "internalType": "bool",
          "name": "r",
          "type": "bool"
        }
      ],
      "stateMutability": "view",
      "type": "function"
    }
  ],
  "bytecode": "0x608060405234801561001057600080fd5b506116fb806100206000396000f3fe608060405234801561001057600080fd5b506004361061002b5760003560e01c8063c9219a7a14610030575b600080fd5b61004361003e3660046113f0565b610059565b60405161005091906114a0565b60405180910390f35b60006100636111e4565b60408051808201825287518152602080890151818301529083528151608081018352875151818401908152885183015160608301528152825180840184528883018051518252518301518184015281830152838201528151808301835286518152868201518183015283830152815160088082526101208201909352600092909182016101008036833701905050905060005b60088110156101615784816008811061011f57634e487b7160e01b600052603260045260246000fd5b602002015182828151811061014457634e487b7160e01b600052603260045260246000fd5b6020908102919091010152806101598161165e565b9150506100f6565b5061016c818361018a565b61017b57600192505050610182565b6000925050505b949350505050565b60007f30644e72e131a029b85045b68181585d2833e84879b9709143e1f593f0000001816101b6610368565b9050806080015151855160016101cc9190611610565b146101f25760405162461bcd60e51b81526004016101e9906114ab565b60405180910390fd5b604080518082019091526000808252602082018190525b86518110156102dd578387828151811061023357634e487b7160e01b600052603260045260246000fd5b6020026020010151106102585760405162461bcd60e51b81526004016101e990611503565b6102c9826102c485608001518460016102719190611610565b8151811061028f57634e487b7160e01b600052603260045260246000fd5b60200260200101518a85815181106102b757634e487b7160e01b600052603260045260246000fd5b6020026020010151610ab6565b610b21565b9150806102d58161165e565b915050610209565b5061031481836080015160008151811061030757634e487b7160e01b600052603260045260246000fd5b6020026020010151610b21565b905061034a6103268660000151610b88565b8660200151846000015185602001518587604001518b604001518960600151610c1d565b61035a5760019350505050610362565b600093505050505b92915050565b610370611216565b6040805180820182527f2006e07a4bb7220fa8efd6e556fa5919bf121f80aba5e87b7b16717b1177d9f681527e7cc9743937b285537d66479d424969f83cdd8941d5f13865b2a61eed003fcb6020808301919091529083528151608080820184527f29523176a008d27786a915205466a8ec32ff26eeebd7a942316180b81ec060a58285019081527f16b8862e5863edcfa17c5d5201877ac5872df5ee1a275abbb3b343930fd8bfa7606080850191909152908352845180860186527f0facc3c892af84054f68a9b552eb047c0e785a1e7af5b80423f955c2fa2c0fd581527f09e61a588338133615e0e9d0891b4d81c3f20fecf50e349642860e76a97ba503818601528385015285840192909252835180820185527f198e9393920d483a7260bfb731fb5d25f1aa493335a9e71297e485b7aef312c28186019081527f1800deef121f1e76426a00665e5c4479674322d4f75edadd46debd5cd992f6ed828501528152845180860186527f090689d0585ff075ec9e99ad690c3395bc4b313370b38ef355acdadcd122975b81527f12c85ea5db8c6deb4aab71808dcb408fe3d1e7690c43d37b4ce6cc0166fa7daa818601528185015285850152835190810184527f1f458a2ab739d6133615ad56c4008d9f02272e2725ffe514d0d2a3e26e275dce8185019081527f02965b3d94b70a683688388b9f38b6102ea7208a8c0d2e200ec68d5ce43fab01828401528152835180850185527f2b52cd0e2175d6b01f1f1172bf8f562df5ad492e55c062e54ede8568e1db762281527f2d5bdd895ac4e5aac510f2b238b199951ef40a1b0f984c460edaf7935307b0ca818501528184015290840152815160098082526101408201909352919082015b6105f361125d565b8152602001906001900390816105eb57505060808201908152604080518082019091527f2714063a86daa94ae8f7822cb80c5912b53854dceaaa6090ed06fa0866e09f8d81527f0d66d6adc7c731f1f8362c0c79a7869064e460f8be21fb8d90d87bb8dff7127360208201529051805160009061068057634e487b7160e01b600052603260045260246000fd5b602002602001018190525060405180604001604052807f2914f3eec23d78d928b783ebdb4f1c89626bff480385c85ba0be85569da2007481526020017f25c8599dc0dda7322d6e9f170c2838e9b4f97dfb16844f64999e765842118b40815250816080015160018151811061070557634e487b7160e01b600052603260045260246000fd5b602002602001018190525060405180604001604052807f1ef7af53c90b26da9d8525001d1949bb2c1716fcc7475cdadd9a2b9f44f0533081526020017f1b72b542dbf1facb5b47d36e253abfe70b1f1956e31d4124ca628886df4d733b815250816080015160028151811061078a57634e487b7160e01b600052603260045260246000fd5b602002602001018190525060405180604001604052807f1006804ee86f158ea965f27e14c589b400b99384b51d7e3db09552201915c23e81526020017f1f5ad6243cf908a4628bb4f2eed07931b2d9dd4fd95636ee5a09a5888e3d0946815250816080015160038151811061080f57634e487b7160e01b600052603260045260246000fd5b602002602001018190525060405180604001604052807f2ff500f7e45f87091768805d6dd3b26fc9797180ac4974152b4dc39158a6a51481526020017f0a28fe8771f9f9825b5a96b0b46d8e3c12cbc208abd0325a3e9f9ee2f0e6b709815250816080015160048151811061089457634e487b7160e01b600052603260045260246000fd5b602002602001018190525060405180604001604052807f10300e17f62863d7973f4aa6d04b16a92f85b87b11768c0578d40a1431df8d7181526020017f2df1739967a54eec737a5842914221c11aeef57b222f09c69b4efbf57e8d59fb815250816080015160058151811061091957634e487b7160e01b600052603260045260246000fd5b602002602001018190525060405180604001604052807f2fc8f7c6a412fca21dcbd9aed8abb545832af69f22037eaaa26aa50327082c2481526020017f2e068363645f3cdcdfbc098a7c854699545a296e8cc33e19bec5419b2ced7e2d815250816080015160068151811061099e57634e487b7160e01b600052603260045260246000fd5b602002602001018190525060405180604001604052807f1e795e0e27dfc8501f578399a85bb9b3bc387b09f8cb57656073447dbb48f14e81526020017f1722cbe8e15018b2ed9629f6a31c5a5f2e1ad5b60289000f950ef4a83a7826d68152508160800151600781518110610a2357634e487b7160e01b600052603260045260246000fd5b602002602001018190525060405180604001604052807f19d046dcf4ae04416a051f5105739ef037f1ea0811b41679b0a104c6c9c0565b81526020017f0faf0de459171c21db0446f327483407eb6eac265fab6ea844b667520c8ebf9c8152508160800151600881518110610aa857634e487b7160e01b600052603260045260246000fd5b602002602001018190525090565b610abe61125d565b610ac6611277565b835181526020808501519082015260408101839052600060608360808460076107d05a03fa9050808015610af957610afb565bfe5b5080610b195760405162461bcd60e51b81526004016101e9906114d7565b505092915050565b610b2961125d565b610b31611295565b8351815260208085015181830152835160408301528301516060808301919091526000908360c08460066107d05a03fa9050808015610af9575080610b195760405162461bcd60e51b81526004016101e99061156a565b610b9061125d565b81517f30644e72e131a029b85045b68181585d97816a916871ca8d3c208c16d87cfd4790158015610bc357506020830151155b15610be35750506040805180820190915260008082526020820152610c18565b604051806040016040528084600001518152602001828560200151610c089190611679565b610c129084611647565b90529150505b919050565b60408051600480825260a08201909252600091829190816020015b610c4061125d565b815260200190600190039081610c3857505060408051600480825260a0820190925291925060009190602082015b610c766112b3565b815260200190600190039081610c6e5790505090508a82600081518110610cad57634e487b7160e01b600052603260045260246000fd5b60200260200101819052508882600181518110610cda57634e487b7160e01b600052603260045260246000fd5b60200260200101819052508682600281518110610d0757634e487b7160e01b600052603260045260246000fd5b60200260200101819052508482600381518110610d3457634e487b7160e01b600052603260045260246000fd5b60200260200101819052508981600081518110610d6157634e487b7160e01b600052603260045260246000fd5b60200260200101819052508781600181518110610d8e57634e487b7160e01b600052603260045260246000fd5b60200260200101819052508581600281518110610dbb57634e487b7160e01b600052603260045260246000fd5b60200260200101819052508381600381518110610de857634e487b7160e01b600052603260045260246000fd5b6020026020010181905250610dfd8282610e0c565b9b9a5050505050505050505050565b60008151835114610e2f5760405162461bcd60e51b81526004016101e99061153a565b82516000610e3e826006611628565b905060008167ffffffffffffffff811115610e6957634e487b7160e01b600052604160045260246000fd5b604051908082528060200260200182016040528015610e92578160200160208202803683370190505b50905060005b8381101561119157868181518110610ec057634e487b7160e01b600052603260045260246000fd5b60200260200101516000015182826006610eda9190611628565b610ee5906000611610565b81518110610f0357634e487b7160e01b600052603260045260246000fd5b602002602001018181525050868181518110610f2f57634e487b7160e01b600052603260045260246000fd5b60200260200101516020015182826006610f499190611628565b610f54906001611610565b81518110610f7257634e487b7160e01b600052603260045260246000fd5b602002602001018181525050858181518110610f9e57634e487b7160e01b600052603260045260246000fd5b6020908102919091010151515182610fb7836006611628565b610fc2906002611610565b81518110610fe057634e487b7160e01b600052603260045260246000fd5b60200260200101818152505085818151811061100c57634e487b7160e01b600052603260045260246000fd5b60209081029190910181015151015182611027836006611628565b611032906003611610565b8151811061105057634e487b7160e01b600052603260045260246000fd5b60200260200101818152505085818151811061107c57634e487b7160e01b600052603260045260246000fd5b6020026020010151602001516000600281106110a857634e487b7160e01b600052603260045260246000fd5b6020020151826110b9836006611628565b6110c4906004611610565b815181106110e257634e487b7160e01b600052603260045260246000fd5b60200260200101818152505085818151811061110e57634e487b7160e01b600052603260045260246000fd5b60200260200101516020015160016002811061113a57634e487b7160e01b600052603260045260246000fd5b60200201518261114b836006611628565b611156906005611610565b8151811061117457634e487b7160e01b600052603260045260246000fd5b6020908102919091010152806111898161165e565b915050610e98565b5061119a6112d3565b6000602082602086026020860160086107d05a03fa9050808015610af95750806111d65760405162461bcd60e51b81526004016101e990611596565b505115159695505050505050565b60405180606001604052806111f761125d565b81526020016112046112b3565b815260200161121161125d565b905290565b6040518060a0016040528061122961125d565b81526020016112366112b3565b81526020016112436112b3565b81526020016112506112b3565b8152602001606081525090565b604051806040016040528060008152602001600081525090565b60405180606001604052806003906020820280368337509192915050565b60405180608001604052806004906020820280368337509192915050565b60405180604001604052806112c66112f1565b81526020016112116112f1565b60405180602001604052806001906020820280368337509192915050565b60405180604001604052806002906020820280368337509192915050565b600082601f83011261131f578081fd5b6040516040810181811067ffffffffffffffff82111715611342576113426116af565b8060405250808385604086011115611358578384fd5b835b600281101561137957813583526020928301929091019060010161135a565b509195945050505050565b600082601f830112611394578081fd5b60405161010080820182811067ffffffffffffffff821117156113b9576113b96116af565b60405281848281018710156113cc578485fd5b8492505b6008831015611379578035825260019290920191602091820191016113d0565b6000806000806102008587031215611406578384fd5b611410868661130f565b9350604086605f870112611422578384fd5b6002611435611430826115ef565b6115c5565b8083890160c08a018b811115611449578889fd5b885b858110156114715761145d8d8461130f565b85526020909401939186019160010161144b565b5082985061147f8c8261130f565b9750505050505050611495866101008701611384565b905092959194509250565b901515815260200190565b6020808252601290820152711d995c9a599a595c8b5898590b5a5b9c1d5d60721b604082015260600190565b6020808252601290820152711c185a5c9a5b99cb5b5d5b0b59985a5b195960721b604082015260600190565b6020808252601f908201527f76657269666965722d6774652d736e61726b2d7363616c61722d6669656c6400604082015260600190565b6020808252601690820152751c185a5c9a5b99cb5b195b99dd1a1ccb59985a5b195960521b604082015260600190565b6020808252601290820152711c185a5c9a5b99cb5859190b59985a5b195960721b604082015260600190565b6020808252601590820152741c185a5c9a5b99cb5bdc18dbd9194b59985a5b1959605a1b604082015260600190565b60405181810167ffffffffffffffff811182821017156115e7576115e76116af565b604052919050565b600067ffffffffffffffff821115611609576116096116af565b5060200290565b6000821982111561162357611623611699565b500190565b600081600019048311821515161561164257611642611699565b500290565b60008282101561165957611659611699565b500390565b600060001982141561167257611672611699565b5060010190565b60008261169457634e487b7160e01b81526012600452602481fd5b500690565b634e487b7160e01b600052601160045260246000fd5b634e487b7160e01b600052604160045260246000fdfea2646970667358221220f2a597ba45e44130f577b75571001c4ba73fc5736e0bce0c536043bbac15951664736f6c63430008000033",
  "linkReferences": {},
  "deployedLinkReferences": {}
}