{
  "_format": "hh-sol-artifact-1",
  "contractName": "Verifier2",
  "sourceName": "contracts/verifiers/Verifier2.sol",
  "abi": [
    {
      "inputs": [
        {
          "internalType": "uint256[2]",
          "name": "a",
          "type": "uint256[2]"
        },
        {
          "internalType": "uint256[2][2]",
          "name": "b",
          "type": "uint256[2][2]"
        },
        {
          "internalType": "uint256[2]",
          "name": "c",
          "type": "uint256[2]"
        },
        {
          "internalType": "uint256[9]",
          "name": "input",
          "type": "uint256[9]"
        }
      ],
      "name": "verifyProof",
      "outputs": [
        {
          "internalType": "bool",
          "name": "r",
          "type": "bool"
        }
      ],
      "stateMutability": "view",
      "type": "function"
    }
  ],
  "bytecode": "0x608060405234801561001057600080fd5b50611781806100206000396000f3fe608060405234801561001057600080fd5b506004361061002b5760003560e01c8063c542c93b14610030575b600080fd5b61004361003e366004611476565b610059565b6040516100509190611526565b60405180910390f35b600061006361126a565b60408051808201825287518152602080890151818301529083528151608081018352875151818401908152885183015160608301528152825180840184528883018051518252518301518184015281830152838201528151808301835286518152868201518183015283830152815160098082526101408201909352600092909182016101208036833701905050905060005b60098110156101615784816009811061011f57634e487b7160e01b600052603260045260246000fd5b602002015182828151811061014457634e487b7160e01b600052603260045260246000fd5b602090810291909101015280610159816116e4565b9150506100f6565b5061016c818361018a565b61017b57600192505050610182565b6000925050505b949350505050565b60007f30644e72e131a029b85045b68181585d2833e84879b9709143e1f593f0000001816101b6610368565b9050806080015151855160016101cc9190611696565b146101f25760405162461bcd60e51b81526004016101e990611531565b60405180910390fd5b604080518082019091526000808252602082018190525b86518110156102dd578387828151811061023357634e487b7160e01b600052603260045260246000fd5b6020026020010151106102585760405162461bcd60e51b81526004016101e990611589565b6102c9826102c485608001518460016102719190611696565b8151811061028f57634e487b7160e01b600052603260045260246000fd5b60200260200101518a85815181106102b757634e487b7160e01b600052603260045260246000fd5b6020026020010151610b3c565b610ba7565b9150806102d5816116e4565b915050610209565b5061031481836080015160008151811061030757634e487b7160e01b600052603260045260246000fd5b6020026020010151610ba7565b905061034a6103268660000151610c0e565b8660200151846000015185602001518587604001518b604001518960600151610ca3565b61035a5760019350505050610362565b600093505050505b92915050565b61037061129c565b6040805180820182527f144eb091c16ba8b33a5dc5f67230ab8037fdbc24e8434d4d145e2e86090ac99181527f0bfd7814aef9058cc4afab73eac966a9926b1fb5bf44e869a5097bbd8f0136386020808301919091529083528151608080820184527f01be67363af78c013e78be060fbf5908f614ddf21b64fd550111a9e71aba7d388285019081527f094e0cbcf6c5d9edbb40880709beeea4955614321b1cf743cf9d35e37362e51c606080850191909152908352845180860186527f2413ad2058836d73d4737ee5494c7022c043320c664ddeb7e6214f40a2e40f6781527f0af19d8be2408e789be51a423fff1a7331e062709739f35aa6f8257f392b60d9818601528385015285840192909252835180820185527f198e9393920d483a7260bfb731fb5d25f1aa493335a9e71297e485b7aef312c28186019081527f1800deef121f1e76426a00665e5c4479674322d4f75edadd46debd5cd992f6ed828501528152845180860186527f090689d0585ff075ec9e99ad690c3395bc4b313370b38ef355acdadcd122975b81527f12c85ea5db8c6deb4aab71808dcb408fe3d1e7690c43d37b4ce6cc0166fa7daa818601528185015285850152835190810184527f2f0d55cb4f388dc2f34425d073b885d2aaf1d6e62ec673d94ee424535125e0748185019081527f2c2f452b687249c2926790d1d43f60495210f4bb7db7d721eb8194cd217501c9828401528152835180850185527f13ebbb41f6640e01a727314b85bf397fa0d4102b3aec9afaec5661b634fdaa3b81527f1b0ee4b702b6c3e0dd556004a9a29af3c50e8902d5374ecdf832eabfffe928648185015281840152908401528151600a8082526101608201909352919082015b6105f46112e3565b8152602001906001900390816105ec57505060808201908152604080518082019091527f1e9b6be82e6a4e95221596009d3a0a43c2b0f1b2bf67333c94259564ba154f9981527f10a839e34282dd2842c275d736be3725ca49a20b1b2a7b8b3a2c6089704aa8f160208201529051805160009061068157634e487b7160e01b600052603260045260246000fd5b602002602001018190525060405180604001604052807f164ade6afa45d1ea3cdc981adfa8bd2f86991da518fd3593d2360b7d2c5b391881526020017f1999d1a1345e58f0dd3fdcac6c1cfc64e33ddccace385a21af90ae133ed6c043815250816080015160018151811061070657634e487b7160e01b600052603260045260246000fd5b602002602001018190525060405180604001604052807f1cd2a8896d4762af3e6632c26937a637097b3913d6b9e5067ac230f68c4a835a81526020017f05e4202b6849fd168ab88b0ffc20f23ae84722aaa84443cf0ec23520c3fde1a9815250816080015160028151811061078b57634e487b7160e01b600052603260045260246000fd5b602002602001018190525060405180604001604052807f09d301163d9a805d1b6a61ef8ca485e4eef367b44352c925378d439b6e2f664181526020017f054ba3d775f954597a7e32e3e6b344a0d02fce5a753b0c6e44e4b38fb93dea1d815250816080015160038151811061081057634e487b7160e01b600052603260045260246000fd5b602002602001018190525060405180604001604052807f21d834c0e1010470bfe80373b438cbe88c30da0ee6447221bd63cc6a0f10f84681526020017f2cf8fe54c4b3bcb47ce2070cab3b4898403693d6a02d8e78005e22dccaffe146815250816080015160048151811061089557634e487b7160e01b600052603260045260246000fd5b602002602001018190525060405180604001604052807f1a0a3eabf2db5ac79b0eb7214e4a826b698b38b60ffabc3204cadb54571065b381526020017f0bba4b9794e6ef902be95da62817749d3f7c120e790458e9f8ee5ab0f75ceb57815250816080015160058151811061091a57634e487b7160e01b600052603260045260246000fd5b602002602001018190525060405180604001604052807f2e9a23b833fd0dd0b25ffd7cc16d280e7633a48ad981fa1d1c8a15b134bc43de81526020017f12649ad922d7d406a2d9728a979ecd744577cefcb5090f882dc0c5fd64a870b7815250816080015160068151811061099f57634e487b7160e01b600052603260045260246000fd5b602002602001018190525060405180604001604052807f111f27e52425ddc81314c53176e5a4c7740110e843c1a633e8e3505b63e0ce3281526020017f25f4a5179902388d318a12d5fdd2f3146f286d9e63dd12139713598d6359397a8152508160800151600781518110610a2457634e487b7160e01b600052603260045260246000fd5b602002602001018190525060405180604001604052807f10b7c72b4df6a8d72b5ba3530ec778f7d6394af5f3e58501ea8f428704d0282d81526020017f09fccc2520c4ef61691e8141ea0608b34900ef59deeb6fde9628d4f0eea471308152508160800151600881518110610aa957634e487b7160e01b600052603260045260246000fd5b602002602001018190525060405180604001604052807f15ff444d2f44ed7d8d87b81acd1c6905799ebc1c460c181a9c5072dae15240fa81526020017f0870dc91ccb14106e3a0665eee08ade90a9bc120eeaba5ca6a2f64e10094f6118152508160800151600981518110610b2e57634e487b7160e01b600052603260045260246000fd5b602002602001018190525090565b610b446112e3565b610b4c6112fd565b835181526020808501519082015260408101839052600060608360808460076107d05a03fa9050808015610b7f57610b81565bfe5b5080610b9f5760405162461bcd60e51b81526004016101e99061155d565b505092915050565b610baf6112e3565b610bb761131b565b8351815260208085015181830152835160408301528301516060808301919091526000908360c08460066107d05a03fa9050808015610b7f575080610b9f5760405162461bcd60e51b81526004016101e9906115f0565b610c166112e3565b81517f30644e72e131a029b85045b68181585d97816a916871ca8d3c208c16d87cfd4790158015610c4957506020830151155b15610c695750506040805180820190915260008082526020820152610c9e565b604051806040016040528084600001518152602001828560200151610c8e91906116ff565b610c9890846116cd565b90529150505b919050565b60408051600480825260a08201909252600091829190816020015b610cc66112e3565b815260200190600190039081610cbe57505060408051600480825260a0820190925291925060009190602082015b610cfc611339565b815260200190600190039081610cf45790505090508a82600081518110610d3357634e487b7160e01b600052603260045260246000fd5b60200260200101819052508882600181518110610d6057634e487b7160e01b600052603260045260246000fd5b60200260200101819052508682600281518110610d8d57634e487b7160e01b600052603260045260246000fd5b60200260200101819052508482600381518110610dba57634e487b7160e01b600052603260045260246000fd5b60200260200101819052508981600081518110610de757634e487b7160e01b600052603260045260246000fd5b60200260200101819052508781600181518110610e1457634e487b7160e01b600052603260045260246000fd5b60200260200101819052508581600281518110610e4157634e487b7160e01b600052603260045260246000fd5b60200260200101819052508381600381518110610e6e57634e487b7160e01b600052603260045260246000fd5b6020026020010181905250610e838282610e92565b9b9a5050505050505050505050565b60008151835114610eb55760405162461bcd60e51b81526004016101e9906115c0565b82516000610ec48260066116ae565b905060008167ffffffffffffffff811115610eef57634e487b7160e01b600052604160045260246000fd5b604051908082528060200260200182016040528015610f18578160200160208202803683370190505b50905060005b8381101561121757868181518110610f4657634e487b7160e01b600052603260045260246000fd5b60200260200101516000015182826006610f6091906116ae565b610f6b906000611696565b81518110610f8957634e487b7160e01b600052603260045260246000fd5b602002602001018181525050868181518110610fb557634e487b7160e01b600052603260045260246000fd5b60200260200101516020015182826006610fcf91906116ae565b610fda906001611696565b81518110610ff857634e487b7160e01b600052603260045260246000fd5b60200260200101818152505085818151811061102457634e487b7160e01b600052603260045260246000fd5b602090810291909101015151518261103d8360066116ae565b611048906002611696565b8151811061106657634e487b7160e01b600052603260045260246000fd5b60200260200101818152505085818151811061109257634e487b7160e01b600052603260045260246000fd5b602090810291909101810151510151826110ad8360066116ae565b6110b8906003611696565b815181106110d657634e487b7160e01b600052603260045260246000fd5b60200260200101818152505085818151811061110257634e487b7160e01b600052603260045260246000fd5b60200260200101516020015160006002811061112e57634e487b7160e01b600052603260045260246000fd5b60200201518261113f8360066116ae565b61114a906004611696565b8151811061116857634e487b7160e01b600052603260045260246000fd5b60200260200101818152505085818151811061119457634e487b7160e01b600052603260045260246000fd5b6020026020010151602001516001600281106111c057634e487b7160e01b600052603260045260246000fd5b6020020151826111d18360066116ae565b6111dc906005611696565b815181106111fa57634e487b7160e01b600052603260045260246000fd5b60209081029190910101528061120f816116e4565b915050610f1e565b50611220611359565b6000602082602086026020860160086107d05a03fa9050808015610b7f57508061125c5760405162461bcd60e51b81526004016101e99061161c565b505115159695505050505050565b604051806060016040528061127d6112e3565b815260200161128a611339565b81526020016112976112e3565b905290565b6040518060a001604052806112af6112e3565b81526020016112bc611339565b81526020016112c9611339565b81526020016112d6611339565b8152602001606081525090565b604051806040016040528060008152602001600081525090565b60405180606001604052806003906020820280368337509192915050565b60405180608001604052806004906020820280368337509192915050565b604051806040016040528061134c611377565b8152602001611297611377565b60405180602001604052806001906020820280368337509192915050565b60405180604001604052806002906020820280368337509192915050565b600082601f8301126113a5578081fd5b6040516040810181811067ffffffffffffffff821117156113c8576113c8611735565b80604052508083856040860111156113de578384fd5b835b60028110156113ff5781358352602092830192909101906001016113e0565b509195945050505050565b600082601f83011261141a578081fd5b60405161012080820182811067ffffffffffffffff8211171561143f5761143f611735565b6040528184828101871015611452578485fd5b8492505b60098310156113ff57803582526001929092019160209182019101611456565b600080600080610220858703121561148c578384fd5b6114968686611395565b9350604086605f8701126114a8578384fd5b60026114bb6114b682611675565b61164b565b8083890160c08a018b8111156114cf578889fd5b885b858110156114f7576114e38d84611395565b8552602090940193918601916001016114d1565b508298506115058c82611395565b975050505050505061151b86610100870161140a565b905092959194509250565b901515815260200190565b6020808252601290820152711d995c9a599a595c8b5898590b5a5b9c1d5d60721b604082015260600190565b6020808252601290820152711c185a5c9a5b99cb5b5d5b0b59985a5b195960721b604082015260600190565b6020808252601f908201527f76657269666965722d6774652d736e61726b2d7363616c61722d6669656c6400604082015260600190565b6020808252601690820152751c185a5c9a5b99cb5b195b99dd1a1ccb59985a5b195960521b604082015260600190565b6020808252601290820152711c185a5c9a5b99cb5859190b59985a5b195960721b604082015260600190565b6020808252601590820152741c185a5c9a5b99cb5bdc18dbd9194b59985a5b1959605a1b604082015260600190565b60405181810167ffffffffffffffff8111828210171561166d5761166d611735565b604052919050565b600067ffffffffffffffff82111561168f5761168f611735565b5060200290565b600082198211156116a9576116a961171f565b500190565b60008160001904831182151516156116c8576116c861171f565b500290565b6000828210156116df576116df61171f565b500390565b60006000198214156116f8576116f861171f565b5060010190565b60008261171a57634e487b7160e01b81526012600452602481fd5b500690565b634e487b7160e01b600052601160045260246000fd5b634e487b7160e01b600052604160045260246000fdfea264697066735822122073e3d109e5d10ee4c42c4c84217397232f36dfc679941a5ec66d358f7cd34b5e64736f6c63430008000033",
  "linkReferences": {},
  "deployedLinkReferences": {}
}